:020000040800F2
:10000000005000201D060008690600086906000867
:100010006906000869060008690600086906000804
:1000200069060008690600086906000869060008F4
:1000300069060008690600086906000869060008E4
:1000400069060008690600086906000869060008D4
:1000500069060008690600086906000869060008C4
:100060006906000869060008690600080D04000812
:1000700069060008690600086906000869060008A4
:100080006906000869060008690600086906000894
:100090006906000869060008690600086906000884
:1000A0006906000869060008690600086906000874
:1000B0006906000869060008690600086906000864
:1000C0006906000869060008690600086906000854
:1000D000690600081D020008690600086906000894
:1000E0006906000869060008690600086906000834
:1000F0006906000869060008690600086906000824
:100100006906000869060008690600086906000813
:100110006906000869060008690600086906000803
:1001200069060008690600086906000869060008F3
:1001300008B500F093F800F0C3F9002000F0FAF9D8
:1001400000F016FA082000F005F800F02FF900F092
:10015000C1F8FEE700212E4A10B453682D4C23F459
:10016000404343F4004353609369092843F4027306
:1001700093612268284B22F00F0222605960996037
:10018000DA6A22F47002DA624FF00702586331D85B
:10019000196900EB4000824021EA020119611969E6
:1001A0000A431A6142F210731B4A916821F46021DC
:1001B0009160916841F480119160013BFDD14FF451
:1001C0007A7315498A6842F001028A60013BFDD1C9
:1001D000114A936843F00803936093681907FCD4AD
:1001E00093680D4943F0040393608B685B07FCD46C
:1001F00010BC70470A38C0B2D96800EB400082409A
:1002000021EA0201D960D9680A43DA60CAE700BF6F
:1002100000100240000C0140002401400C4A136809
:100220009B0614D510B413680A4913F0200318BFB5
:1002300053680A780878084C02F1010218BFDBB253
:1002400002F01F02C0B223540A7010BC70477047FE
:1002500000380140080000200C000020F0B44FF0EE
:10026000E0202024002741F64C5642F22C054FF4A2
:10027000806C124A936943F4804343F00403936112
:100280000F4BA2F55842596821F0F00159605968A6
:1002900041F0B0015960596821F4706159605968A2
:1002A00041F400615960C3F810C0D7609660D56012
:1002B000C0F88442C0F80441F0BC7047001002400E
:1002C00000080140024A13681B06FCD550607047C5
:1002D00000380140F0B4002241F61F476326322562
:1002E000682401200F498B6943F400638B610E4B36
:1002F0001A60DA601A625A649F62DE621A635D6392
:100300009C615A6258611A611A6AF0BC02431A620F
:100310005A6C42F400425A641A6842F081021A6030
:10032000704700BF00100240002C01402DE9F0474B
:10033000061E0CBF32276427BE4282B02FD26D4604
:10034000DFF86080184C002238F8161089B2084691
:10035000A4FB01C3DB080DEB020E02F1010C914678
:1003600003EB8302A1EB4202303209288EF8002011
:1003700099B25FFA8CF2EAD842B1A94499F8000028
:10038000FFF7A0FFA94509F1FF39F7D10A20FFF7D0
:1003900099FF01360D20FFF795FFBE42D3D102B081
:1003A000BDE8F0872C000020CDCCCCCCF0B40125EA
:1003B0004FF400644FF0E020642740F2A6560F4946
:1003C0000F4B4A692A434A619A68A1F56C4122F0B1
:1003D00001029A600B4A1A610B4A5A61DF609E6003
:1003E0005D60C0F88042C0F800418A6842F48072C3
:1003F0008A609A682A439A60F0BC704700100240F5
:10040000000002404C2401402C000020284A38B54E
:100410001468610702D4A30725D438BD0021042540
:100420000B462448556030F81320013392B2322B2A
:100430001144F8D14FF0640C1F4B2048A3FB01235B
:100440001B090CFB03F303F2FF73A0FB03201B1A31
:1004500000EB5300C0F3C72000F06CF80020FFF75A
:1004600065FFA307D9D5022400213223104A114881
:10047000546030F81320013392B2642B1144F8D148
:100480000D4A0E48A2FB0121090901FB03F303F207
:10049000FF73A0FB03201B1A00EB5300C0F3C7201F
:1004A00000F048F8BDE838403220FFF73FBF00BFFA
:1004B000000002402C0000201F85EB5101011000BC
:1004C0001A4AF0B490694FF0804340F00400906104
:1004D0000120472740F2E736002515490C6824F033
:1004E0000F040C600C6844F00B040C60D1690143EC
:1004F000D1619F62DE625D639A69F0BC22F0700296
:100500009A619A6942F060029A619A6942F008021F
:100510009A611A6A02431A621A6842F080021A60EB
:1005200058611A6802431A60704700BF0010024009
:1005300000080140642828BF64200A490A4B08705B
:100540001A7802F0FF030AB10B78DBB24FF0804259
:10055000D06A064900FB0333A1FB03135B09536315
:10056000704700BF00000020F40000201F85EB5101
:1005700001220A4B1A701A7802F0FF0312B1084BDD
:100580001B78DBB24FF08042D06A064900FB033390
:10059000A1FB03135B095363704700BFF400002005
:1005A000000000201F85EB511221164B164A1960DE
:1005B000136843F48033136013689903FCD55068C3
:1005C000124B114903405360536843F4E81343F45A
:1005D00080635360136843F0807313600B689B0162
:1005E000FCD54B68084A23F0030343F002034B6039
:1005F000536803F00C03082BFAD1054B054A1A6027
:10060000704700BF00200240001002400CC0C0FF35
:100610000400002000A24A04704700BF0D480E49A4
:100620000E4A914200D304E050F8043B41F8043BE9
:10063000F7E70B490B4A0023914200D302E041F84F
:10064000043BF9E7FFF7B0FFFFF7E6FFFFF770FDA8
:10065000FEE700006C0600080000002008000020F3
:0C06600008000020F8000020FEE7000069
:08066C006400000000A24A0432
:040000050800061DCC
:00000001FF
